:100000000C9449000C9468000C9468000C946800EF
:100010000C9468000C944B010C9468000C946800DC
:100020000C9468000C9468000C9468000C949D017A
:100030000C9468000C947A010C946A010C9455019C
:100040000C9468000C9468000C9468000C94680090
:100050000C9468000C9468000C9468000C94680080
:100060000C9468000C9468000C9468000C94680070
:100070000C9468000C9468000C9468000C94680060
:100080000C9468000C9468000C9468003004200004
:10009000000011241FBECFEFD0E4DEBFCDBF19E0BA
:1000A000A0E0B1E0E4E1FBE100E00BBF02C007909B
:1000B0000D92AA32B107D9F719E0AAE2B9E001C05E
:1000C0001D92AE37B107E1F70E943C030C94880DF6
:1000D0000C94000011B88FE084B917B81AB88FE3F8
:1000E00082B98FEF85B988B98BB9089511B814B862
:1000F00017B81AB88FE382B98FEF85B988B98BB971
:1001000082E08093680087E080936C00089580B758
:10011000806880BFEAE7F0E080818F77808310926B
:100120007C008FEF80937E008FEB809364000895B6
:10013000E4E6F0E080818F7E80838BE090E0909316
:10014000CD008093CC0080E48093C80088E1809348
:10015000C90086E08093CA000895E4E6F0E080815B
:100160008E7F808310927E0080EC80937C0086E8F6
:1001700080937A000895E4E6F0E08081877F8083B1
:1001800082E2809380008AE1809381008FEF93E088
:10019000909387008093860085E080936F00089598
:1001A00010928000109281001092850010928400BD
:1001B0001092870010928600EFE6F0E080818A7F3F
:1001C0008083E4E6F0E080818860808385B18F6081
:1001D00085B90895E4E6F0E08081877F80832091EF
:1001E000190930911A0984EF91E0AC01249FC001F4
:1001F000259F900D349F900D11249093890080933A
:10020000880082E080936F00E1E8F0E08081826006
:100210008083808188608083089582E080933309A1
:1002200094E19093360985E08093370982E38093C7
:1002300035099093340981E08093320983E08093FB
:100240003809089580E48093700910927109109222
:1002500072091092730980E88093740910927509ED
:1002600010927609109277090E94EA00239A2B9A3D
:1002700080E060E04EE123E00E94C1058AED94E059
:1002800060E070E00E94D7060E940D0110924D09B7
:1002900010924C0908951F920F920FB60F921124DD
:1002A0000F900FBE0F901F9018951F920F920FB6D0
:1002B0000F9211248F9385B18F6085B9209800002B
:1002C000189902C010922A098F910F900FBE0F90BB
:1002D0001F9018951F920F920FB60F9211248F93B3
:1002E000209A85B1807F85B98F910F900FBE0F90B6
:1002F0001F9018951F920F920FB60F9211242F93F3
:100300003F938F939F9381E080932B0980912C09D9
:1003100090912D092091190930911A09820F931F8C
:1003200090932D0980932C099F918F913F912F914C
:100330000F900FBE0F901F9018951F920F920FB63F
:100340000F9211248F9383B18F6083B98F910F9097
:100350000FBE0F901F90189590917C00907E909307
:100360007C0090917C00982B90937C0020E030E002
:1003700040E050E080917A00806480937A00809120
:100380007A0084FFFCCF8091780090917900280F4B
:10039000391F4F5F5F4F4031510561F784E036955B
:1003A00027958A95E1F7C901089520E040E058EDCE
:1003B00083B18F6083B9CA010197F1F72F5F2436AB
:1003C000B9F785B18F6085B908951092B600109283
:1003D000B100E4E6F0E0808180648083E0E7F0E053
:1003E00080818E7F808385B18F6085B980E091E0C8
:1003F0000E94D90A0895E4E6F0E080818F7B808333
:1004000082E08093B10080E28093B600E0E7F0E004
:100410008081816080838CE191E00E94D90A0895F7
:10042000DF92EF92FF920F931F93AFE6B0E0DC9064
:10043000E0E7F0E00081F5B0E4B01C92108210918A
:100440006400289A209892E09BBB9093680097E004
:1004500090936C0083BF0E948700889513BE109311
:10046000640087E086BB81E087BBD0926F00009379
:100470007000F5B8E4B81F910F91FF90EF90DF90F6
:10048000089588E391E00E94D90A89E591E00E94ED
:10049000D90A8091C80086FFFCCF8FE00E9410022D
:1004A0008FE691E00E94D90A089584E991E00E94C4
:1004B000D90A8091C80086FFFCCF8DE00E9410020F
:1004C00081EC91E00E94D90A08958DED91E00E949F
:1004D000D90A8091C80086FFFCCF85E00E941002F7
:1004E0008DE092E00E94D90A08958CE292E00E9489
:1004F000D90A8091C80086FFFCCF87E00E941002D5
:100500008CE592E00E94D90A08958BE792E00E9460
:10051000D90A8091C80086FFFCCF81E00E941002BA
:1005200085EA92E00E94D90A08950E94BB000E94C9
:10053000AD0081E080932A098EEB92E00E94D90AF7
:100540008FED92E00E94D90A07C086E00E94AC01BC
:1005500090938B0080938A0080912A098823A9F7C1
:100560000E94D00084E093E00E94D90A089586E0BA
:100570000E94AC0100D000D025E233E0EDB7FEB719
:1005800032832183948383830E94C70A0F900F9044
:100590000F900F90089587E00E94AC0100D000D02A
:1005A00023E433E0EDB7FEB7328321839483838362
:1005B0000E94C70A0F900F900F900F900895EF922E
:1005C000FF920F931F93CF93DF9388E593E00E94F0
:1005D000D90A8AEA93E00E94D90A80ED93E00E944A
:1005E000D90AC0E0D0E090E2E92E94E0F92E0CE5C3
:1005F00010E0CE0121962DB73EB7285030400FB6FF
:10060000F8943EBF0FBE2DBFEDB7FEB73196ADB724
:10061000BEB71296FC92EE921197D383C2839C01CF
:10062000209FC001219F900D309F900D11249C01AF
:1006300027533B4F3583248383529B4F9783868375
:100640000E94C70A8DB79EB708960FB6F8949EBF52
:100650000FBE8DBFCC30D10561F680ED93E00E94D6
:10066000D90A80E394E00E94D90ADF91CF911F91CB
:100670000F91FF90EF9008954F925F926F927F924B
:100680008F929F92AF92BF92CF92DF92EF92FF92A2
:100690000F931F93DF93CF93CDB7DEB7A0970FB61D
:1006A000F894DEBF0FBECDBF8BE199E090937B093C
:1006B00080937A090E948700199999C00E946A0064
:1006C0000E9498000E94AD00789420E040E058ED30
:1006D00083B18F6083B9CA010197F1F72F5F24318D
:1006E000B9F785B18F6085B90E94DF0200D00EE6B0
:1006F00014E0EDB7FEB7128301830E94C70AFF24FE
:100700000F900F905E010894A11CB11C28013CE5DC
:10071000832E912C25EC622E24E0722E0E94B404CC
:10072000883009F446C08D3009F051C0FF20C1F176
:100730008AE090E00E94BB04F501EF0DF11D1082EC
:10074000C5010E946C0A00E010E0C82EDD2478018B
:10075000089DB001099D700D189D700D11246753FF
:100760007B4FC5010E948A0A009729F00F5F1F4F37
:10077000C016D10671F4E89CF001E99CF00DF89CDC
:10078000F00D1124ED5DFA4F0190F081E02D0995F7
:1007900007C00C301105D9F685E894E00E94D90A0B
:1007A00000D0EDB7FEB7418252820E94C70AFF24F3
:1007B0000BC0FF2009F4B2CF00D0EDB7FEB77282B4
:1007C00061820E94C70AFA940F900F90A7CFFFE1B1
:1007D000FF1508F4A3CF803208F4A0CFF501EF0D88
:1007E000F11D8083F39490E00E94BB0497CF0E9498
:1007F00076000E942201789412E000E280912B0999
:100800008823C1F010922B0985B7806185BF809144
:100810002C0990912D090E9432069C018091490972
:1008200080FF02C02B9801C02B9A30FDF0CF85B716
:100830008F7E85BF18990AC084B1896084B984B15C
:10084000897F84B9289885B1866085B919991FC0B8
:1008500084B18A6084B984B18A7F84B9299885B1CA
:10086000856085B9809164008F7B809364001093CC
:10087000B1000093B60087E00E9410021092B6000B
:100880001092B100809164008064809364001A9992
:100890000DC084B18C6084B984B18C7F84B92A98EE
:1008A00085B1836085B985E00E9410021E99A6CFAC
:1008B000109268000E94AD000E94BB0084B18F605E
:1008C00084B907C086E00E94AC0190938B008093AE
:1008D0008A001E9BF7CF0E94D00084B1887F84B924
:1008E0000E9422011BBB1093680088CF3F937F9327
:1008F0009F93762F7095982F90953AB139233AB9F6
:100900003AB137233AB93BB1382B3BB93BB1372326
:100910003BB93AB1362B3AB99F917F913F910895F7
:100920003F937F939F93762F7095982F90953AB130
:1009300073237AB93AB1762B382B93233AB99AB903
:100940007AB99F9189B184237F913F9108953F9314
:100950009F93982F90953BB139233BB93AB1382BEF
:100960003AB99F913F9108958091C80087FFFCCFCD
:100970008091CE000895CF93DF93EC018091C80061
:1009800080648093C800CA30D10541F460917A092F
:1009900070917B098DE090E00E949B0A8091C800D5
:1009A00085FFFCCFC093CE008091CE0090E0DF9118
:1009B000CF910895A1E0B0E0E0EEF4E00C943B0AA2
:1009C000E82F0FB70078198280912E09813019F035
:1009D00081E080932E09CE2EDD24F601E059F64FFA
:1009E000B080F601EC58F64FA080F894BB2009F4D3
:1009F000ADC08B2D0E94A7048B2D6A2D0E9476041A
:100A00001B2DEE24FF2460E0812C30E2932EF5FEB6
:100A100007C09091710980917009982B21F536C01B
:100A20008FB7802B8FBF0000F8948B2D6A2D412F3C
:100A30000E949004682F0894E11CF11C8091290900
:100A40008F5F80932909823030F0823021F083302B
:100A500011F0109229096623D1F220917109809139
:100A60007009282B15C0412F80E040FF09C0E82FF6
:100A7000F0E0EE0FFF1FE75CF64F9182808201C02D
:100A800090FD8F5F96954695992379F710E020E0C9
:100A90008FB7802B8FBF10922F09222309F43FC0FC
:100AA000112309F43CC03091750980917409382BE9
:100AB000562F90E080E070E040E023C050FD17C06A
:100AC00019C030FF13C0981781F4E42FF0E0EE0F47
:100AD000FF1FE75CF64FF182E082852F8E7F19F4CD
:100AE000892F71E008C0892F06C08F5F36953323A8
:100AF00041F701C020FD9F5F20FD4F5F5695269571
:100B000011F05523D9F640932F09609516237130C3
:100B100021F4112311F4EE24FF2460E013C080912E
:100B2000710990917009892B898390E006C08981B1
:100B300080FD9F5F89818695898389818823B9F7A4
:100B400090932F09F894112309F061CF80E799E081
:100B5000C80ED91EF60180810E94A7048FB7082B0A
:100B60000FBF2196ECE00C94570AFC0180E290E064
:100B7000918380831382128280E394E0958384833F
:100B8000089590916A09A92FB0E0FD01EE0FFF1FB3
:100B9000EA0FFB1FEE0FFF1FEE5AF64F43836770FD
:100BA00085832370660F660F660F262B24839F5F55
:100BB00090936A0908951F93CF93DF93282FC82F2E
:100BC000D0E0FE01EE0FFF1FEC0FFD1FEE0FFF1F29
:100BD000EE5AF64F3581838190E00090320902C0D1
:100BE000959587950A94E2F7182F843008F414E05D
:100BF00080916A09281718F020E030E02EC0832F7A
:100C00000E9425079C01412F50E016951695812FD3
:100C100090E0841B950B8217930764F4FE01EE0F9E
:100C2000FF1FEC0FFD1FEE0FFF1FEE5AF64F8481E2
:100C30008B7F848388279927841B950B82179307C2
:100C400064F0FE01EE0FFF1FEC0FFD1FEE0FFF1F04
:100C5000EE5AF64F848184608483C901DF91CF917D
:100C60001F910895FF920F931F93CF93DF931092DC
:100C70004B0910924A0920914E0930914F099093E7
:100C80004F0980934E094091500950915109421BE0
:100C9000530B480F591FFF2403C0F394485C504086
:100CA000483C5105D0F75093510940935009809129
:100CB0006B09882341F08F1518F410926B0903C05B
:100CC0008F1980936B090E94180AE0914C09F091EA
:100CD0004D09309709F0099510E000E006C0812F1A
:100CE0006F2D0E943A07082B1F5F60916A09161743
:100CF000B0F3002349F080914A0990914B0991602B
:100D000090934B0980934A0910924909A2E5B9E0F2
:100D100030E041E050E017C08C91887191F0E32FF2
:100D2000E695E695E695F0E0E75CF64F832F877051
:100D3000EA0102C0CC0FDD1F8A95E2F720892C2B37
:100D4000208B3F5F1696361738F380914A099091B1
:100D50004B09CDB7DEB7E5E00C945E0A10926A0944
:100D600084E08093330994E19093360985E0809381
:100D70003709109235099093340981E08093320944
:100D800083E0809338090E94070A10924D0910925F
:100D90004C0908951F9310E004C0812F0E94F906AA
:100DA0001F5F80916A091817C0F31F910895EF9291
:100DB000FF921F93CF93DF93EC017B0110E004C0FF
:100DC000812F0E94F9061F5F80916A091817C0F3EE
:100DD00010924F0910924E09D0933109C0933009F7
:100DE000C7010E94020ADF91CF911F91FF90EF90FF
:100DF000089590E0E2E5F9E09C01220F331F280FEF
:100E0000391FD901AA0FBB1FAE0FBF1F15964C91FA
:100E1000159780914A0990914B09826090934B09F4
:100E200080934A092F5F3F4F220F331FE20FF31FBA
:100E30001082ECE6F9E0E40FF11D80E8808381E0A8
:100E40008C938FE011968C93089590E0FC0134967A
:100E5000A9E3B9E0EE0FFF1FEA0FFB1F880F991FF0
:100E6000A80FB91F208131818D919C91281B390BCE
:100E7000C9010895A0E0B0E0E0E4F7E00C94390A7D
:100E8000782EF62E0E94DB055C01072D10E0F8019C
:100E9000EE0FFF1FE00FF11FEE0FFF1FEE5AF64F90
:100EA00054814381242F30E0852F837090E0019698
:100EB00002C0359527958A95E2F7822F223008F4F3
:100EC00082E0242F30E0B901681B7109F801EE0FB0
:100ED000FF1FE00FF11FEF01CC0FDD1FCE5AD64FE1
:100EE0008881843009F4F7C0853030F4813071F0A6
:100EF000823009F080C26EC0803109F4A2C1803214
:100F000009F444C2883009F076C2F0C140914A0920
:100F100050914B09CA01926090934B0980934A0902
:100F20008D816981A82FB0E06A3060F0AA0FBB1FE5
:100F3000FD01E75CF64F80819181AF5BB64F8D93E9
:100F40009C9318C0AA0FBB1FFD01EF5BF64F2081D9
:100F50003181A75CB64F8D919C918217930718F44D
:100F60002150304005C02817390750F42F5F3F4FFC
:100F7000318320834860526050934B0940934A0963
:100F8000862F8150F801EE0FFF1FE00FF11FEF01D8
:100F9000CC0FDD1FCE5AD64F89838823B1F4AD81A3
:100FA00082E0888380914A0990914B0982609093F6
:100FB0004B0980934A09EE0FFF1FEC5AF64F10823F
:100FC000B0E0A459B64F80E88C93809134098093A7
:100FD0006B090FC252FF04C080E288831982FAC1F4
:100FE000C501B7FE02C080E090E08217930780F051
:100FF000F801EE0FFF1FE00FF11FEE0FFF1FDF01E3
:10100000AE5AB64F84E08C93EC5AF64F1082E8C18A
:10101000FF2009F4F0C180916B09882309F0EBC12E
:10102000F801EE0FFF1FE00FF11FEE0FFF1FEE5A4A
:10103000F64F858190E0EC01CC0FDD1FCF5BD64FE2
:1010400028813981FC01EE0FFF1FE75CF64F01900C
:10105000F081E02D2E173F0788F4FC01E459F64F8C
:1010600090819F0D9083809137098058981708F4DC
:10107000C2C180E880832F5F3F4F14C0DC01A459B8
:10108000B64FE217F307D0F48C918F198C9340E898
:1010900090913609542F591B581708F4ACC14C9342
:1010A000215030403983288380914A0990914B091F
:1010B000886090934B0980934A099DC12C912138F7
:1010C00010F021502C93FC01E459F64F808187FDEC
:1010D00092C18F5F59C1C501B7FE02C080E090E0A8
:1010E000F801EE0FFF1F8217930708F490C080915C
:1010F000340980936B099F01200F311F220F331F8A
:10110000D901AC5AB64F8C918F5F8C93F901EE5A8E
:10111000F64F848190E08873907023E096958795D0
:101120002A95E1F7682E882309F43FC0DD24CC24FA
:101130007F0183E090E0E80EF91E4D0130C0D71426
:1011400069F18D2D90E0EC01CC0FDD1FC80FD91F88
:10115000CC0FDD1FCE5AD64F8C8190E088739070F3
:1011600073E0969587957A95E1F76816B9F48D2D19
:101170000E94DB052B81821B9109F7012081A501CB
:10118000421B5109481759072CF08881803111F012
:10119000883021F4F4011082CC24C394D39480913C
:1011A0006A09D81660F2CC2079F48091330988233B
:1011B00059F080914A0990914B09986090934B099E
:1011C00080934A0941E001C040E09801220F331F9B
:1011D000200F311FF901EE0FFF1FEC5AF64F9081DF
:1011E00080913309981708F407C180914A099091BA
:1011F0004B09836090934B0980934A09F901EE0FE4
:10120000FF1FEE5AF64F80E180831182F5C0E00F98
:10121000F11FEE0FFF1FDF01AE5AB64F15962C914E
:10122000159782E08C9380914A0990914B098260D6
:1012300090934B0980934A09EC5AF64F1082E22FA3
:101240009FC0C501B7FE02C080E090E0F801EE0F3C
:10125000FF1F40914A0950914B098617970770F478
:10126000E00FF11FEE0FFF1FEE5AF64F88E080836C
:10127000546050934B0940934A0932C041605093E7
:101280004B0940934A09E00FF11FEE0FFF1FEC5A84
:10129000F64F908180913309981710F49F5F9083E7
:1012A00090913509992371F0F801EE0FFF1FE00FBF
:1012B000F11FEE0FFF1FEE5AF64F8181891720F4C0
:1012C0008F0D818340E00DC0872D0E94F90680912B
:1012D0004A0990914B09926090934B0980934A0977
:1012E00041E08091340980936B0986C08091340974
:1012F00080936B09DF01AA0FBB1FAC5AB64F8C91CC
:10130000882389F1C501B7FE02C080E090E04091DA
:101310004A0950914B096817790790F4F801EE0FCC
:10132000FF1FE00FF11FEE0FFF1FEE5AF64F80E197
:101330008083416050934B0940934A0940E006C0C6
:10134000546050934B0940934A0941E0F801EE0F75
:10135000FF1FE00FF11FEE0FFF1FEC5AF64F8081C9
:101360008150808349C0ED8182E0888380914A0961
:1013700090914B09826090934B0980934A091C928B
:10138000F0E0E459F64F80E8808335C099819F5F93
:1013900099838C8182FD17C0AD8182E08883809122
:1013A0004A0990914B09826090934B0980934A09B6
:1013B000EE0FFF1FEC5AF64F1082B0E0A459B64F63
:1013C00080E88C9318C080913809981748F0872DD1
:1013D0000E94F90680914A0990914B09906105C0DD
:1013E00080914A0990914B09946090934B098093A6
:1013F0004A0941E001C040E0842FCDB7DEB7EEE0FE
:101400000C94550AFC01009709F009950895109273
:101410007009109271091092740910927509109256
:101420007209109273091092760910927709089543
:101430008091720990917009892B41F0E0913009F7
:10144000F0913109309711F080E00995809173098E
:1014500090917109892B41F0E0913009F0913109A7
:10146000309711F081E0099508952F923F924F92A5
:101470005F926F927F928F929F92AF92BF92CF9224
:10148000DF92EF92FF920F931F93CF93DF93CDB72D
:10149000DEB7CA1BDB0B0FB6F894DEBF0FBECDBFA5
:1014A00009942A88398848885F846E847D848C8476
:1014B0009B84AA84B984C884DF80EE80FD800C817F
:1014C0001B81AA81B981CE0FD11D0FB6F894DEBF62
:1014D0000FBECDBFED010895FC0188279927E89440
:1014E00021912032E9F3293010F02E30C8F32B324D
:1014F00041F02D3239F4689404C00E94930A820F9F
:10150000911D219120532A30C0F31EF490958195AE
:101510009F4F0895FB01DC018D910190801901100E
:10152000D9F3990B08957AE0979F902D879F802D8E
:10153000910D112408950F931F93CF93DF938C0186
:10154000EB018B8181FF1BC082FF0DC02E813F818B
:101550008C819D812817390764F4E881F981019312
:10156000F983E88306C0E885F985802F0995892BE2
:1015700031F48E819F8101969F838E8302C00FEF8D
:101580001FEFC801DF91CF911F910F910895DF9355
:10159000CF93CDB7DEB7FE01359661917191809101
:1015A0007A0990917B09AF010E940E0BCF91DF91D8
:1015B00008950F931F93CF93DF938C01E0917A09E5
:1015C000F0917B09838181FF21C0C0E0D0E00DC094
:1015D000E0917A09F0917B0920853185BF01F901FD
:1015E0000995892B11F0CFEFDFEFF80181918F0181
:1015F000882371F7E0917A09F0917B092085318584
:101600008AE0BF01F9010995892B11F0CFEFDFEFD7
:10161000CE01DF91CF911F910F9108952F923F92AC
:101620004F925F926F927F928F929F92AF92BF92F2
:10163000CF92DF92EF92FF920F931F93DF93CF939E
:10164000CDB7DEB72B970FB6F894DEBF0FBECDBF78
:101650003C012B015A01FC0117821682838181FD16
:1016600003C06FEF7FEFC6C19AE0892E1E01089478
:10167000211C311CF3012381F20123FD859123FFFD
:1016800081912F01882309F4B2C1853239F423FDF9
:10169000859123FF81912F01853229F490E0B301D8
:1016A0000E949B0AE7CF982FFF24EE249924FFE1A4
:1016B000FF15D0F09B3269F09C3228F4903259F03B
:1016C000933291F40EC09D3249F0903369F441E0B9
:1016D00024C052E0F52A84E0F82A28C098E0F92ACC
:1016E00025C0E0E1FE2A22C0F7FC29C0892F8053E3
:1016F0008A3070F4F6FE05C0989C902C1124980E48
:1017000015C0E89CE02C1124E80EF0E2FF2A0EC080
:101710009E3229F4F6FC6BC140E4F42A07C09C36E3
:1017200019F450E8F52A02C0983649F4F20123FD75
:10173000959123FF91912F01992309F0B8CF892F1B
:101740008554833018F08052833038F444E050E000
:10175000A40EB51E5FE359830FC0933631F0933763
:1017600079F0933509F056C020C0F5018081898356
:1017700042E050E0A40EB51E610101E010E012C08D
:10178000F501C080D180F6FC03C06FEF7FEF02C08F
:10179000692D70E042E050E0A40EB51EC6010E9423
:1017A0001F0D8C015FE7F52214C0F501C080D180C8
:1017B000F6FC03C06FEF7FEF02C0692D70E042E0DE
:1017C00050E0A40EB51EC6010E94140D8C0150E815
:1017D000F52AF3FE07C01AC080E290E0B3010E9430
:1017E0009B0AEA948E2D90E008171907A8F30EC003
:1017F000F601F7FC8591F7FE81916F0190E0B3014E
:101800000E949B0AE110EA94015010400115110555
:1018100079F7EAC0943611F0993669F5F7FE08C0F9
:10182000F501208131814281538184E090E00AC03A
:10183000F501808191819C01442737FD4095542F0B
:1018400082E090E0A80EB91E9FE6F92257FF09C07A
:1018500050954095309521953F4F4F4F5F4FE0E8B1
:10186000FE2ACA01B901A1012AE030E00E942A0D36
:10187000D82ED21840C0953729F41F2D1F7E2AE09C
:1018800030E01DC01F2D197F9F3661F0903720F486
:10189000983509F0ACC00FC0903739F0983709F08F
:1018A000A6C004C028E030E00AC0106114FD146036
:1018B00020E130E004C014FD166020E132E017FFA3
:1018C00008C0F501608171818281938144E050E01C
:1018D00008C0F50180819181BC0180E090E042E088
:1018E00050E0A40EB51EA1010E942A0DD82ED218D8
:1018F0008FE7F82EF122F6FE0BC05EEFF522D91429
:1019000038F4F4FE07C0F2FC05C08FEEF82202C0E6
:101910001D2D01C0192DF4FE0DC0FE01ED0DF11DB0
:101920008081803319F499EEF92208C01F5FF2FE1E
:1019300005C003C08F2D867809F01F5F0F2DF3FCC3
:1019400014C0F0FE0FC01E1510F09D2C0BC09D2C76
:101950009E0C911A1E2D06C080E290E0B3010E94F9
:101960009B0A1F5F1E15C0F304C01E1510F4E11A78
:1019700001C0EE2404FF0FC080E390E0B3010E9499
:101980009B0A02FF1DC001FD03C088E790E00EC066
:1019900088E590E00BC0802F867891F001FF02C0AF
:1019A0008BE201C080E2F7FC8DE290E0B3010E947F
:1019B0009B0A06C080E390E0B3010E949B0A9A94C0
:1019C000D914C0F3DA94F101ED0DF11D808190E09E
:1019D000B3010E949B0ADD20A9F706C080E290E0D7
:1019E000B3010E949B0AEA94EE20C1F743CEF301B3
:1019F00066817781CB012B960FB6F894DEBF0FBEC0
:101A0000CDBFCF91DF911F910F91FF90EF90DF90AD
:101A1000CF90BF90AF909F908F907F906F905F908E
:101A20004F903F902F900895FC01059061507040B9
:101A30000110D8F7809590958E0F9F1F0895FC0197
:101A40006150704001900110D8F7809590958E0FED
:101A50009F1F0895FA01AA27283051F1203181F102
:101A6000E8946F936E7F6E5F7F4F8F4F9F4FAF4FA6
:101A7000B1E03ED0B4E03CD0670F781F891F9A1FB9
:101A8000A11D680F791F8A1F911DA11D6A0F711D6D
:101A9000811D911DA11D20D009F468943F912AE079
:101AA000269F11243019305D3193DEF6CF01089561
:101AB000462F4770405D4193B3E00FD0C9F7F6CF92
:101AC000462F4F70405D4A3318F0495D31FD40525A
:101AD000419302D0A9F7EACFB4E0A69597958795F0
:101AE00077956795BA95C9F70097610571050895CF
:101AF0009B01AC010A2E069457954795379527957B
:101B0000BA95C9F7620F731F841F951FA01D089512
:041B1000F894FFCF77
:101B140033322E3736386B487A20637279737461A6
:101B24006C2073746F707065642E0D0033322E3721
:101B340036386B487A206372797374616C207374DD
:101B440061727465642E0D00456E746572696E670A
:101B540020657874656E646564207374616E646274
:101B640079206D6F64652E0D00507573682053578E
:101B74003020746F2077616B652D75702E0D0057C2
:101B84006F6B652075702066726F6D206578746563
:101B94006E646564207374616E646279206D6F6431
:101BA400652E0D00456E746572696E6720737461ED
:101BB4006E646279206D6F64652E205075736820A1
:101BC40053573020746F2077616B652D75702E0D1F
:101BD40000576F6B652075702066726F6D2073748B
:101BE400616E646279206D6F64652E0D00456E74BC
:101BF4006572696E6720706F7765722D646F776E9A
:101C0400206D6F64652E2050757368205357302003
:101C1400746F2077616B652D75702E0D00576F6B97
:101C2400652075702066726F6D20706F7765722DF8
:101C3400646F776E206D6F64652E0D00456E74655C
:101C440072696E6720706F7765722D736176652097
:101C54006D6F64652E20507573682053573020745F
:101C64006F2077616B652D75702E0D00576F6B6556
:101C74002075702066726F6D20706F7765722D739A
:101C8400617665206D6F64652E0D00456E74657216
:101C9400696E672069646C65206D6F64652E2050E1
:101CA4007573682053573020746F2077616B652DEE
:101CB40075702E0D00576F6B652075702066726FFE
:101CC4006D2069646C65206D6F64652E0D004C6930
:101CD4006768742073656E736F722064656D6F201E
:101CE4006D6F646520656E61626C65642E0D0050D5
:101CF4007573682053573020746F20657869742099
:101D04006C696768742073656E736F722064656DA7
:101D14006F2E0D004C696768742073656E736F7263
:101D24002064656D6F206D6F64652073746F7070CF
:101D340065642E0D004C494748542053454E534F7B
:101D440052204144432076616C75653A2025346401
:101D54000D0A004E5443204144432076616C75655E
:101D64003A202534640D0A000D0A2D2D2D2D2D2D1C
:101D74002D2D2D2D2D2D2D2D2D2D2D2D2D2D2D2D8F
:101D84002D2D2D2D2D2D2D2D2D2D2D2D2D2D2D2D7F
:101D94002D2D2D2D2D2D2D2D2D2D2D2D2D2D2D2D6F
:101DA4002D2D2D2D2D2D2D2D2D2D2D2D2D2D2D2D5F
:101DB4002D2D2D2D2D2D2D2D0D00232020434F4D68
:101DC4004D414E443A202020202020202020202055
:101DD40020204445534352495054494F4E3A0D0034
:101DE4002D2D2D2D2D2D2D2D2D2D2D2D2D2D2D2D1F
:101DF4002D2D2D2D2D2D2D2D2D2D2D2D2D2D2D2D0F
:101E04002D2D2D2D2D2D2D2D2D2D2D2D2D2D2D2DFE
:101E14002D2D2D2D2D2D2D2D2D2D2D2D2D2D2D2DEE
:101E24002D2D2D2D2D2D2D2D2D2D2D2D2D2D0D002B
:101E3400252D326420252D3230732025730D0A00A0
:101E4400546F20706572666F726D206120636F6DD0
:101E54006D616E642C20656E74657220636F6D6DA8
:101E6400616E64206E756D626572206F7220636F9F
:101E74006D6D616E6420737472696E670D000D0A76
:101E84004D4547412D31323834502058706C6169CA
:101E94006E65643E00496E76616C696420636F6DA3
:101EA4006D616E642E2054797065202768656C70AE
:101EB4002720666F722061206C697374206F66201E
:101EC400617661696C61626C6520636F6D6D616ED2
:101ED40064732E0D000820080068656C7000000013
:101EE40000000000000000000000000000507269C3
:101EF4006E7420746869732068656C70000000005B
:101F040000000000000000000000000000000000CD
:101F140000000000000000000000000000000000BD
:101F240000000000000000000000000000000000AD
:101F3400000000DF02666C617368206C65647300E6
:101F4400000000000000000000546F67676C6573B8
:101F5400206C65647320636F6E6E656374656420C2
:101F6400746F20504F525442303A33000000000046
:101F7400000000000000000000000000000000005D
:101F8400000000000000000000000000000000D578
:101F94000172656164206E7463000000000000003B
:101FA400000000000052657475726E73204E544335
:101FB4002041444320636F6465202841444337290A
:101FC400000000000000000000000000000000000D
:101FD40000000000000000000000000000000000FD
:101FE4000000000000000000000000CB02726561E8
:101FF40064206C696768742073656E736F72000087
:102004000052657475726E73204C6967687420534E
:10201400656E736F722041444320636F64652028AA
:102024004144433629000000000000000000000085
:10203400000000000000000000000000000000009C
:1020440000000000000000B7026C69676874207328
:10205400656E736F722064656D6F0000004C4544BB
:10206400333A30206172652064696D6D6564206166
:1020740063636F7264696E6720746F20746865208F
:102084006C696768742073656E736F722076616C17
:102094007565000000000000000000000000000062
:1020A400000000950273746172742033326B687A95
:1020B400206372797374616C005374617274732059
:1020C4007468652033322E3736386B487A20637251
:1020D400797374616C0000000000000000000000CF
:1020E40000000000000000000000000000000000EC
:1020F400000000000000000000000000000000FBE1
:102104000173746F702033326B687A206372797351
:1021140074616C000053746F7073207468652033AD
:10212400322E3736386B487A206372797374616C57
:10213400000000000000000000000000000000009B
:10214400000000000000000000000000000000008B
:102154000000000000000000000000E50169646C5C
:102164006500000000000000000000000000000006
:10217400004D435520696E2069646C65206D6F6461
:10218400652E2057616B652075702062792070720E
:10219400657373696E6720535730000000000000B8
:1021A400000000000000000000000000000000002B
:1021B400000000000000008502706F7765722D73C7
:1021C400617665000000000000000000004D4355EA
:1021D40020696E20506F7765722D53617665206D8E
:1021E4006F64652E2057616B6520757020627920BD
:1021F4007072657373696E67205357300000000076
:1022040000000000000000000000000000000000CA
:102214000000007502706F7765722D646F776E0031
:102224000000000000000000004D435520696E20AE
:10223400506F7765722D446F776E206D6F64652ED5
:102244002057616B65207570206279207072657308
:1022540073696E67205357300000000000000000CF
:102264000000000000000000000000000000006505
:10227400027374616E646279000000000000000063
:1022840000000000004D435520696E205374616EB8
:10229400646279206D6F64652E2057616B652075CB
:1022A40070206279207072657373696E672053576A
:1022B40030000000000000000000000000000000EA
:1022C4000000000000000000000000550265787462
:1022D400656E646564207374616E646279000000E5
:1022E400004D435520696E20457874656E646564BD
:1022F400205374616E646279206D6F64652E20577B
:10230400616B6520757020627920707265737369E2
:102314006E672053573000000000000000000000EA
:10232400000000000000004102190000000002004B
:0A233400000000BB040000000001DF
:00000001FF
