:020000020000FC
:100000000C948507189518951895189518951895B6
:10001000189518950C94130118951895189518951E
:100020001895189518951895189518950C944C01D5
:10003000189518950C942D010C941F010C94140123
:100040001895189518951895189518951895189548
:100050001895189518951895189518951895189538
:100060001895189518951895189518951895189528
:100070001895189518951895189518951895189518
:1000800018951895189518951895189500E001B9C8
:100090000FE004B900E007B90AB90FE302B90FEFA6
:1000A00005B908B90BB9089500E001B904B9F3DF47
:1000B00002E00093680007E000936C00089500B729
:1000C000006800BF00917A000F7700937A0000E08B
:1000D00000937C000FEF00937E000FEB0093640011
:1000E000089549D00F7E67D00BE010E01093CD004B
:1000F0000093CC0000E40093C80008E10093C9001D
:1001000006E00093CA00089536D00E7F54D000E078
:1001100000937E0000EC00937C0006E800937A00D8
:10012000089547D002E2009380000AE10093810025
:100130000FEF13E0109387000093860005E0009313
:100140006F00089500E00093800000938100009309
:10015000850000938400009387000093860000913F
:100160006F000A7F00936F0006D0086024D005B1AD
:100170000F6005B908950091640008951AD004EF46
:1001800011E0EDE7FAE0408151810E94A30710934E
:1001900089000093880002E000936F0000918100C5
:1001A000026000938100009181000860009381004B
:1001B0000895E1DF077F009364000895E7EEFAE019
:1001C00002E0018304E1048305E0058302E3038385
:1001D00004E1028301E0008303E006830895E6E181
:1001E000FBE000E41AD0EAE1FBE000E816D0C6DF4D
:1001F000239A2B9A33E02EE110E000E00E943305B1
:1002000020E030E002EB13E00E94AC04D7DF00E016
:10021000EEEEFAE0008301830895008300E001839D
:10022000028303830895189514D04AD020980000C3
:10023000189903C000E00093D30A07D0189509D09D
:10024000209A05B1007F05B9F8CF1FBF0991199118
:1002500008951A930A931FB70895FA93EA934A935D
:100260003A932A935BD04FB701E00093810A009143
:100270007D0A10917E0AEDE7FAE022813381200F9A
:10028000311F228333834FBF0991199129913991ED
:100290004991E991F9911895DCDF03B10F6003B939
:1002A000CCCF20E00BC013B11F6013B947ED56ED62
:1002B00041505040E9F700C000002395201798F303
:1002C00005B10F6005B90895302F00E010E02091CE
:1002D0007C00207E20937C0020917C00232B2093A7
:1002E0007C0020E130917A00306430937A003091C4
:1002F0007A0034FFFCCF4091780050917900040FD0
:10030000151F2A9579F744E00C94AB0707E005D058
:100310000FE412E08FD022960895D6DF1A930A9345
:10032000089506E0FADF04E612E0F4CF00916400DD
:100330000F7B0093640002E00093B10000E20093A1
:10034000B600089500E00093B6000093B10000915C
:10035000640000640093640008950E940508809181
:100360006F0090917000A5B1B4B110E010936F00D0
:100370001093700040906400289A209812E01BBBF4
:100380001093680017E010936C0003BF0E945F0099
:10039000889500E003BF4092640007E006BB01E0DF
:1003A00007BB80936F0090937000A5B9B4B9E5E0E6
:1003B0000C94160804E675CF0E9491002BD101E041
:1003C0000093D30A02E812E035D004EA12E032D0FA
:1003D00001C022D10091D30A0023D9F70E94A200C4
:1003E0000AEC12E027C0A2DF0091700001600093C8
:1003F00070000CEE12E01EC0A5DF009170000E7FB1
:10040000009370005DDF09E013E014C006E213E022
:1004100011D01DD006FFFDCF01E039D001E513E07A
:1004200009C00BE613E006D012D006FFFDCF2ED098
:100430000CE913E00C9432080CEB13E0FBDF07D05F
:1004400006FFFDCF05E023D00DEE13E0F3CF0091C2
:10045000C800089501E315E0EDCF0DE014E0EADFF8
:10046000F6DF06FFFDCF0DE012D00BE314E0E2CF84
:1004700008E514E0DFDF0AE714E0DCDFE8DF06FF71
:10048000FDCF0FE004D001E914E0D4CF07E065CF41
:100490008A9307EB14E0CEDF0AE015E0CBDFDADF6A
:1004A00080E04BD036E0200F311F89010C5E1F4FDA
:1004B00035DF3A932A93E82FF0E03196FA93EA93E6
:1004C00002E815E0B7DF269683958C3050F3C2DF43
:1004D00002E915E0AFDF899108950E940208D80172
:1004E0004AE050E020E030E00E94920B402E80E095
:1004F00024D0622E26E0722E600E711E93018D01B3
:100500000E948C08012B39F05524E82FF0E0319639
:100510004E165F0649F40AE5600E00E0701ED30136
:10052000ED91FC91099506C083958C3008F301ED9F
:1005300015E080DFE8E00C941308482F50E00CE54C
:1005400010E00E94A3072DE208950E9454000E942B
:10055000EF0078940EC060D01E9BFDCF0E94A200D9
:1005600004B1087F04B90E94EF0002E00BBB0093C6
:1005700068000091810A0023C1F000E00093810A25
:1005800005B7006105BFEDE7FAE0028113810E9423
:10059000C70411702091E60A20FF02C02B9801C009
:1005A0002B9A89F705B70F7E05BF18990AC004B1C9
:1005B000096004B904B1097F04B9289805B106603F
:1005C00005B919990DC004B10A6004B904B10A7FD4
:1005D00004B9299805B1056005B9A8DE57DFB2DE78
:1005E0001A990CC004B10C6004B904B10C7F04B9B1
:1005F0002A9805B1036005B905E049DF1E99B9CF16
:1006000000E00093680006D00E94910004B10F60E2
:1006100004B9A2CF0C94840006E056DE10938B0040
:1006200000938A0008950E940608A09780E00E9427
:1006300046000E947100EEDF789404E132DE28DF8C
:1006400008C0882331F00AE022D09C938E0145DF58
:1006500080E002E116E0EEDE0E949203DE0190E00F
:10066000A80FB91F102F185019F0155051F307C0DB
:10067000882391F309E216E0DDDE8A95EDCF803222
:1006800058F7003248F30C93839501D0E5CF10E082
:100690000C9499030E945F00199902C0C4DF01C045
:1006A00054DF00E010E008953F937F939F93712FF4
:1006B0007095902F90953AB139233AB93AB13723D2
:1006C0003AB93BB1302B3BB93BB137233BB93AB1D7
:1006D000312B3AB99F917F913F9108953F937F933A
:1006E0009F93712F7095902F90953AB173237AB99B
:1006F0003AB1712B302B93233AB99AB97AB99F91B9
:1007000009B102237F913F9108953F939F93902FCA
:1007100090953BB139233BB93AB1302B3AB99F910F
:100720003F9108950091C80007FFFCCF0091CE00D3
:1007300008959A938A93C8010091C80000640093B9
:10074000C8008A30904019F40DE010E0F2DF00910B
:10075000C80005FFFCCF082F8093CE0010E08991E0
:10076000999108958A927A926A925A924A92BA9389
:10077000AA9326976FB610E01B834424552410914A
:10078000D50A113019F011E01093D50AEAE1FBE027
:10079000E00FF41DA6E1BBE0A00FB41D2C912A834D
:1007A00000810D834C82F8940A81002309F4C7C0AC
:1007B000802E7D800C910E948503172D082D0E94AC
:1007C000540355FACEF400E01091160B2091170B4C
:1007D000122B18831A81198318811123F1F11981C1
:1007E00010FF2FC020E030E212E0019FF001EA523A
:1007F000F54F2083318327C06FBE0000F8942A8113
:10080000172D082D0E946E030C8301E0400E00E0BE
:10081000501E0091820A03950093820A023038F03C
:10082000033028F0043018F000E00093820A0C81B5
:10083000002339F20091160B1091170B012B08833E
:100840000EC0188110FD0395188116951883198123
:10085000169519831881112311F600E00A836FBEE3
:1008600010E000E030E01093D40A2091160B409184
:10087000170B242B50911A0B40911B0B542B4881C2
:10088000442309F447C04A81442309F443C02C811E
:100890002983452F2DC02981222369F120FD06C01F
:1008A000288120FD16C01EC033954695442389F04B
:1008B00040FBDEF70317C1F75091D40A22E0529FA4
:1008C000F001EA52F54F4082518229812E7F09F4CE
:1008D00011E00395288120FF05C0E4EDFAE02081B6
:1008E000239520832981269529832881269528838D
:1008F0002881222381F60C8100952A8120232A83D6
:1009000000E00C831130B1F40A81002399F44424EF
:10091000552410C02B830BC00B8100FF05C0E4EDF4
:10092000FAE00081039500830B8106950B830B8110
:10093000002391F7F8940A81002309F042CF0C912B
:100940000E9485036FBE2696A991B991499059904E
:1009500069907990899008950E940508D801C9018D
:10096000442404C0042D0E948D0543940091100B73
:100970004016C0F3E6EDFAE000E0068F078FA48F83
:10098000B58F8C010E945C07E5E00C9416080E946C
:100990000508442490E0A6EDBAE0FD01428E438EA6
:1009A000468D578D9801241B350B068F178F00A19C
:1009B00011A1020F131F00A311A305C0085C104072
:1009C00000A311A3939500A111A1083C1405B0F751
:1009D0000091110B002341F0091718F44092110BFC
:1009E00003C0091B0093110B0E946307FD01008DDA
:1009F000118D0030140511F0F801099580E005C053
:100A00008C010E942B06402A839529D0C8F34420EC
:100A100021F0FD01038D0160038F00E00093E60AE1
:100A200080E017C0482F3AD0F801E850F54F008118
:100A3000087171F0282F269526952695477001E0BC
:100A40000E949907FD01E20FF51F1089102B108BF2
:100A5000839505D038F3FD01028D138D95CF00915C
:100A6000100B80170895702F612F4091100B16D036
:100A7000E8EFFAE0E00FF11F23836770660F660F5F
:100A8000660F6483758304810C7F3370032B0483AA
:100A9000E0E1FBE0008103950083089550E006E06B
:100AA00010E00C94A3070E940608202F60E070E07D
:100AB000402FF4DFA8EFBAE0A00FB11FFD01358190
:100AC000038110E04091E70A0E94B107802F0430B3
:100AD00008F484E00091100B2017D8F4032F0E9433
:100AE0004807B801082F0695069510E090E0081B0E
:100AF00010400617170724F4FD0104810B7F0483BF
:100B0000819590408617970724F0FD0104810460C9
:100B100004838B01E4E00C9417088A93802FADD1F5
:100B2000482F1CD001E000830FE0018389910895D4
:100B30003B2F6A2F12D0058112E01083A0EFBAE09C
:100B40001C9112601C93528320E8E02FF0E0E850E3
:100B5000F54F228FA62FB32F0895402F8FD1E8EFA6
:100B6000FAE0E00FF11F0895AD0122E0029F67D087
:100B7000A6EDBAE0A00DB11D1A3018F00D911C9130
:100B800011C097D12D913C9111972017310718F47E
:100B90000150104007C02D913C910217130718F423
:100BA0000F5F1F4F51D0DA01089545D12081236096
:100BB0002083D3DF00E1008351830895BD0122E04B
:100BC000029F70D1408151813AD030E0A8EFBAE065
:100BD000A00FB31F208531852417350780F45A965E
:100BE0000C91010F0C93102F5A970091EC0A0058AA
:100BF000101718F15BD10F5F1F4F26D01EC0421790
:100C0000530780F45A960C91011B0C9300E8109145
:100C1000EB0A011B1C915A97011778F047D101503C
:100C20001040EBCFFD01028D013810F00A95028FC4
:100C3000028D003810F40395028FDB010895E6ED74
:100C4000FAE0E00DF11D089500871187F4D00081CE
:100C50000860008308950E94FF07902E612EAA2449
:100C600088240E945305C801492D08D1A8EFBAE095
:100C7000A00FB11FFD0103814481437043950E9481
:100C80009E07023008F402E043805524401A5A08B7
:100C90000C910A9571F00A95D1F0025099F1045027
:100CA00009F49CC0085009F47DC0005109F4A8C0A3
:100CB000B6C0D2D00183FD011181058155DFFD0150
:100CC00001810A95018309F4D7D0BBD0A8C0048163
:100CD00002FF06C000E20C93A182A9D000619EC071
:100CE000B5D020F004E00C93A28297C0662009F4EE
:100CF00096C00091110B002309F091C0162D0581BB
:100D00005DDF8DC0A3D008F44BC098D0039502835B
:100D1000448008E34022469446944694A1F1552429
:100D200006C00081003141F1083031F15394009147
:100D3000100B501630F55914C9F3452D9FD028EFEC
:100D4000622E2AE0722E600E711EF3010481087378
:100D5000069506950695041549F7052D0E9453053D
:100D6000FD012381AC01421B5040F3012381021B92
:100D7000104040175107ACF6FD018282AA24A394CB
:100D8000D5CFAA2039F40091E80A002319F04FD0FA
:100D90000860018364D008F442C0092D06DF3FC01B
:100DA0006BD03DC040D00415150528F408E00C9325
:100DB00060D001838ACF59D052D010F403950283BA
:100DC0000091EA0A002309F480CF1181101718F46A
:100DD000012F060DEECF29D03FD0EBCF2FD000232F
:100DE000F9F221D04016510620F400E10C933DD0D9
:100DF00002C03FD00183FD0102810A9502830FC02A
:100E0000018103950183048102FFCACF0181109102
:100E1000ED0A011710F009D060CF2BD00183082D07
:100E2000EBE00C9410088C012EC0092D76CE839433
:100E300002D001810895E0EFFAE0089502D0028126
:100E400008950091E90A0093110B0895ECDFFD016C
:100E50002381021710400895EADF02600895FD0122
:100E600002811091E80A01170895E5DF0081016011
:100E7000F0CEDDDF04600895092D5ACE50E006E083
:100E800010E00C94A307112312F400E010E0089581
:100E900012E0019F07D00DD005D020813181021BC7
:100EA000130B0895F001EA52F54F089500E85A96A1
:100EB0000C9300851185089520E00030120711F091
:100EC000F801099508950091160B1091180B012B4C
:100ED00019F011D009F00BD00091170B1091190BDC
:100EE000012B21F008D011F001E001D00895E0912C
:100EF000F20AF32F0994E2EFFAE02081318100E059
:100F00002030300708950C94790C0EE40DBF02E0F8
:100F10000EBFCFEFD1E00E942008002311F00E9405
:100F200052080E944A030E9497070C9483070C946E
:100F300083074A9512F0000FE1F708954A9512F0E1
:100F40000695E1F70895149F102D059F100D049F3D
:100F5000002D110D08954A951AF016950795FBCFAF
:100F600008954A951AF015950795FBCF0895222408
:100F7000349F302D259F300D169F300D079F300D6B
:100F8000249F202D310D159F200D311D069F200D12
:100F9000311D149F102D210D321D059F100D211D97
:100FA000321D049F002D110D221D321D08950024B5
:100FB00011241001E0E2EA9592F0001F111F221F98
:100FC000331F001C111C221C331C04161506260698
:100FD000370688F3041A150A260A370AECCF001FD1
:100FE000111F221F331FA001B101009510952095FC
:100FF00030950895FA92EA92DA92CA92BA92AA9237
:101000009A928A927A926A925A924A92BA93AA933E
:101010009A938A930895FF84EE84DD84CC84BB8404
:10102000AA84998488847F806E805D804C80BB8197
:10103000AA8199818881F0E0EC0FFD1FEF010895EE
:1010400001E00895F80103C0319641505040042F4B
:10105000052B29F000810217B9F78F01089500E0F0
:1010600010E0089522979E012E5F3F4F2883398319
:10107000BE01A80121E030E000E81BE00E94AD08BD
:101080002296089520E008D0E9F708953BBF279104
:101090003BB702D0D9F708952D9301501040202F6F
:1010A000212B089504EF402E08E1502E00E0602E21
:1010B000F201362D6BBE07911691F201EE5FFF4FE4
:1010C0003F4F3BBFA791B691F201362DEC5FFF4F2A
:1010D0003F4F3BBF479157916691242F252B262BDD
:1010E00021F0FA01362FD2DF01C0CCDF07E0400E3D
:1010F00000E0501E601EA201662D42305941604042
:10110000B8F20895F8013191321729F08F01332395
:10111000C9F700E010E0089502C02F5F3F4FF801CB
:101120004081F9015081451739F4F80131968F015A
:10113000442399F700E005C018F40FEF1FEF08955E
:1011400001E010E00895F80101C0319620812223CA
:10115000E1F7E01BF10B8F010895EBD1E397CA0192
:101160002B010C831D832E833F8300E00A8B0B8BA6
:1011700031C005E2FE017B96E20FF31F008301966A
:10118000AE89BF890C851D85A01BB10B0889198903
:10119000A01BB10B0E851F85A01BB10B088D02FD96
:1011A00002C0AAD1E1F14C855D859E01255E3F4FCD
:1011B00097D1A9F540E328893989A0D181F14E85DD
:1011C0005F85288539858CD151F5088D02FF02C0D5
:1011D00093D129F17DD1002321F40A891B89E3965B
:1011E0008CC20532B1F400E00C870D870E870F87A3
:1011F000088B098B5FD16BD1005249F00350B1F0DD
:10120000085081F0025081F0035091F013C021602A
:10121000F2CF2191CF018E0140D21123DAF60FEFE8
:101220001FEFDDCF2260E7CF2460E5CF2860E3CF5A
:101230002061E1CF00810A3271F447D10E8B1F8B00
:101240000E89112332F41195019510400E8B1F8BDE
:10125000246001960FC03E8B3F8B0AC04E895F8988
:101260004F3F0FE7500719F01AD16E8B7F8B019615
:1012700032D1A0F32DD10E3221F00FEF0C8B0D8B5C
:1012800017C025D10A3229F420D10C8B1D8B019671
:101290000FC03C8B3D8B0AC04C895D894F3F0FE7E7
:1012A000500719F0FCD06C8B7D8B019614D1A0F304
:1012B000288F398FFC01208103E81AE00E94820800
:1012C000012B21F0FC010191CF0101C000E00A8F48
:1012D000083631F4FDD0083619F402E60A8F01967B
:1012E0008E01055E1F4F0A871B87FC010080002DC1
:1012F000085509F462C00B50A1F00A95E1F00550C1
:10130000D1F0065009F459C00A9509F489C0035078
:1013100009F493C0025009F450C0035009F44DC0C1
:10132000A7C02C853D85F9013196EC87FD87C8D093
:101330001196B2D01FCF0A8D0C36BFD021F42D915B
:101340003D91AAD005C0A8D0212F220F220B322F09
:10135000612F660F660BAA8DA83661F0A23631F4B4
:10136000102F110F110B212F312F06C0A43711F0B0
:10137000AA3711F4262F362F33231AF485D04DE2E5
:101380000AC0488D41FF03C07FD04BE204C040FF3C
:1013900003C07AD040E2A8D0AE01455E5F4F6C85B5
:1013A0007D85460F571F48875987088319832A83ED
:1013B0003B83202D8E01BFD0E2CE0A8D0C3629F45E
:1013C0007CD02D913D9168D00CC0013729F475D0A7
:1013D0002D913D911496F7CF0A366FD0C9F35CD0AA
:1013E00069D0AA8DA83641F0A23611F410E004C0ED
:1013F000A43711F0AA3709F45DD0488D43FFCCCF54
:10140000402F412B422B432B39F2402D406248376D
:1014100019F63AD040E368D037D069D00082BCCF0B
:1014200054D09E01255E3F4F2887398720E00883EE
:1014300019832A832B8328E7BDCF47D008871987D4
:101440004C895D89088555231AF40E94A3080DC0B4
:1014500031D00E942208202F212B29F028853985A0
:10146000021B130B02C00C891D890E871F8787CEB4
:101470002C853D8589010F5F1F4F0C871D8700203C
:1014800009F477CE002D76CE6C857D85AB014F5F5C
:101490005F4F4C875D870895A083B1830895608175
:1014A00070E00AE010E00E94A307600F711F605314
:1014B0007040089520E030E0089502D01D91089515
:1014C000F201A081B1810D910895F7DFE5CF01967A
:1014D000FC0100810895FC01008100530A30089549
:1014E0008E01F9D0012B089502D040830895FE01AA
:1014F0007B96E60FF71F089540E29D018E0101D013
:10150000F1CF17D021974883D801290180E090E0DE
:1015100001C001968415950544F441E050E09E0118
:101520008D01DFDFB1F300E001C001E010E02196A2
:10153000E4C00C9404080E94FB0724972801E22EC3
:10154000F801028513850A831B830FE6E01611F468
:1015500008E007C0022F0062083711F00AE001C05E
:1015600000E110E00883198308E1602E7724808170
:101570009181A2813381B32F44E6E41619F049E644
:10158000E41649F433233AF49095A095B0958195EB
:101590009F4FAF4FBF4F082F092B0A2B0B2B21F466
:1015A00004891589012B19F10FEF600E701E8880D8
:1015B0009980A92CAA0CAA0869D0405D4A3318F07A
:1015C0000E2D0155400F0A811B81060D171D680164
:1015D000F80140835BD0C801D901012B022B032BFA
:1015E00031F0F201008511850C151D05E8F2088126
:1015F00019810830104071F4F201008D03FF0AC018
:1016000040D00081003331F00FEF600E701E00E318
:1016100038D0008308E110E006191709F2010687A7
:1016200017872A813B81260D371D20873187248922
:1016300035890217130744F4201B310B208B318BA3
:10164000008D0F7E008F19C03323BAF4208D2471D2
:10165000203199F46688778824853585621A730A63
:1016600020893189621A730A601A710A01E06016D2
:1016700000E0700614F0608A718A2496EFE00C9402
:101680000C08EA81FB81E60DF71D0895A4016A2D7F
:101690007A2D8C019D010C94D707BA93AA93D80197
:1016A000F801068117811496ED91FC911597099523
:1016B000FD0106831783012B49F0028913890F5F0F
:1016C0001F4F028B138B00E010E002C00FEF1FEFE3
:1016D000A991B99108952DDF2801C901DA0100E02F
:1016E00010E001C011972A2F2B2B39F0FC0121911A
:1016F000CF018201D2DF1123AAF7E6E00C9415088E
:101700000E940608D801822F022F10E00E94990340
:101710000817104011F48D0102C000E010E0E4E071
:101720000C9417080E94FA072A9708831983690105
:101730003A014880598003C001E0400E511EF20179
:10174000008110E0C801099785309040A8F300326D
:10175000110791F30D3211F00B3219F4F1902F01B2
:1017600002C00BE2F02E55232AF0BBD019F005E29F
:10177000B9D06CF00C2D0D2929F008811981F601E2
:101780000083118300E010E020E030E0A6C0A9D083
:101790006CF000E1A7D0C9F4A8D0B9F401810062CF
:1017A000083799F402E0400E511E0FC09ED011F090
:1017B0000AE009C001810062083721F400E1602ECF
:1017C0007724F0CF08E0602E77244C825D8203C03E
:1017D00001E0400E511E89D0D9F380E090E0A0E0F6
:1017E000B0E04A825B82A72CAA0CAA0818C08E839C
:1017F0009F83A887B987E02E0EEAE01AAC01BD01ED
:1018000083012A2D3A2D0E94B70750E00E0D151FB7
:10181000251F351FC801D90101E0400E551EF201F8
:10182000408150E0FA01E154F0407A9710F4405EB4
:101830005F4F9A01A3010EEA1AE00E942208202FAE
:10184000212BA9F60C811D810415150509F492CFF1
:101850000A811B819201201B310BF301E757F54FE1
:101860000081201B30403AF121303040CCF48C0113
:101870009D010E1910402040304080179107A207AB
:10188000B30770F0A3016A2D7A2D0E94D7074E810D
:101890005F8168857985041715072607370759F092
:1018A00002E210E0EEE1FBE0008311838FEF9FEF97
:1018B000AFEFBFEF0AC00DE2F01639F49095A09596
:1018C000B09581959F4FAF4FBF4F0C2D0D2919F04B
:1018D000F601408251828C019D012A96E0E10C9430
:1018E0000B0801E0601671060895F20100810033D3
:1018F0000895FFCF84084F020219004D00D30A005B
:1019000000004E5443204144432076616C75653A93
:10191000202534640D0A004C494748542053454E55
:10192000534F52204144432076616C75653A20251F
:1019300034640D0A004C696768742073656E736FB8
:10194000722064656D6F206D6F646520656E6162E5
:101950006C65642E0D0A0050757368205357302053
:10196000746F2065786974206C696768742073658A
:101970006E736F722064656D6F2E0D0A004C69677F
:1019800068742073656E736F722064656D6F206D6F
:101990006F64652073746F707065642E0D0A003378
:1019A000322E3736386B487A206372797374616CE3
:1019B00020737461727465642E0D0A0033322E3701
:1019C00036386B487A206372797374616C20737453
:1019D0006F707065642E0D0A00456E746572696ED5
:1019E000672069646C65206D6F64652E2050757387
:1019F000682053573020746F2077616B652D7570A8
:101A00002E0D0A00576F6B652075702066726F6D22
:101A10002069646C65206D6F64652E0D0A00456E4B
:101A2000746572696E6720706F7765722D73617669
:101A300065206D6F64652E20507573682053573094
:101A400020746F2077616B652D75702E0D0A00571D
:101A50006F6B652075702066726F6D20706F776593
:101A6000722D73617665206D6F64652E0D0A0045D9
:101A70006E746572696E6720706F7765722D646F22
:101A8000776E206D6F64652E2050757368205357F4
:101A90003020746F2077616B652D75702E0D0A00F4
:101AA000576F6B652075702066726F6D20706F7751
:101AB00065722D646F776E206D6F64652E0D0A0060
:101AC000456E746572696E67207374616E646279C5
:101AD000206D6F64652E2050757368205357302039
:101AE000746F2077616B652D75702E0D0A00576F2E
:101AF0006B652075702066726F6D207374616E6403
:101B00006279206D6F64652E0D0A00456E746572F2
:101B1000696E6720657874656E64656420737461AE
:101B20006E646279206D6F64652E0D0A00507573C6
:101B3000682053573020746F2077616B652D757066
:101B40002E0D0A00576F6B652075702066726F6DE1
:101B500020657874656E646564207374616E646278
:101B600079206D6F64652E0D0A000D0A2D2D2D2D27
:101B70002D2D2D2D2D2D2D2D2D2D2D2D2D2D2D2D95
:101B80002D2D2D2D2D2D2D2D2D2D2D2D2D2D2D2D85
:101B90002D2D2D2D2D2D2D2D2D2D2D2D2D2D2D2D75
:101BA0002D2D2D2D2D2D2D2D2D2D2D2D2D2D2D2D65
:101BB0002D2D2D2D2D2D2D2D2D2D0D0A00232020E9
:101BC000434F4D4D414E443A2020202020202020DC
:101BD00020202020204445534352495054494F4E21
:101BE0003A0D0A002D2D2D2D2D2D2D2D2D2D2D2D88
:101BF0002D2D2D2D2D2D2D2D2D2D2D2D2D2D2D2D15
:101C00002D2D2D2D2D2D2D2D2D2D2D2D2D2D2D2D04
:101C10002D2D2D2D2D2D2D2D2D2D2D2D2D2D2D2DF4
:101C20002D2D2D2D2D2D2D2D2D2D2D2D2D2D2D2DE4
:101C30002D2D0D0A00252D326420252D32307320E4
:101C400025730D0A00546F20706572666F726D20E7
:101C50006120636F6D6D616E642C20656E746572BA
:101C600020636F6D6D616E64206E756D62657220AC
:101C70006F7220636F6D6D616E6420737472696E34
:101C8000670D0A00496E76616C696420636F6D6D43
:101C9000616E642E2054797065202768656C70270A
:101CA00020666F722061206C697374206F662061FA
:101CB0007661696C61626C6520636F6D6D616E64E5
:101CC000732E0D0A000D0A4D4547412D313238342F
:101CD000502058706C61696E65643E0008200800F1
:101CE00068656C700000000000000000000000004B
:101CF000000000005072696E742074686973206877
:101D0000656C700000000000000000000000000092
:101D100000000000000000000000000000000000C3
:101D200000000000000000000000000000000000B3
:101D3000000000000000000000004802666C6173B3
:101D400068206C6564730000000000000000000063
:101D5000546F67676C6573206C65647320636F6E86
:101D60006E656374656420746F20504F5254423026
:101D70003A330000000000000000000000000000F6
:101D80000000000000000000000000000000000053
:101D9000000000000000DA0172656164206E746367
:101DA0000000000000000000000000005265747593
:101DB000726E73204E54432041444320636F646528
:101DC00020284144433729000000000000000000A3
:101DD0000000000000000000000000000000000003
:101DE00000000000000000000000000000000000F3
:101DF0000000860172656164206C696768742073F5
:101E0000656E736F7200000052657475726E732098
:101E10004C696768742053656E736F722041444348
:101E200020636F6465202841444336290000000088
:101E300000000000000000000000000000000000A2
:101E40000000000000000000000000000000910100
:101E50006C696768742073656E736F722064656D5A
:101E60006F0000004C4544333A30206172652064B5
:101E7000696D6D6564206163636F7264696E67206C
:101E8000746F20746865206C696768742073656E70
:101E9000736F722076616C756500000000000000B1
:101EA00000000000000000000000DC01737461729B
:101EB000742033326B687A206372797374616C00BA
:101EC000537461727473207468652033322E373610
:101ED000386B487A206372797374616C000000007B
:101EE00000000000000000000000000000000000F2
:101EF00000000000000000000000000000000000E2
:101F0000000000000000F30173746F702033326B27
:101F1000687A206372797374616C000053746F7017
:101F200073207468652033322E3736386B487A2038
:101F30006372797374616C0000000000000000009F
:101F40000000000000000000000000000000000091
:101F50000000000000000000000000000000000081
:101F60000000FC0169646C650000000000000000D6
:101F700000000000000000004D435520696E2069FC
:101F8000646C65206D6F64652E2057616B652075EC
:101F900070206279207072657373696E6720535781
:101FA0003000000000000000000000000000000001
:101FB0000000000000000000000000000000060219
:101FC000706F7765722D7361766500000000000008
:101FD000000000004D435520696E20506F776572F8
:101FE0002D53617665206D6F64652E2057616B659A
:101FF000207570206279207072657373696E672036
:1020000053573000000000000000000000000000F6
:10201000000000000000000000001102706F7765F2
:10202000722D646F776E0000000000000000000059
:102030004D435520696E20506F7765722D446F7740
:102040006E206D6F64652E2057616B652075702062
:102050006279207072657373696E67205357300020
:102060000000000000000000000000000000000070
:102070000000000000001C027374616E646279004D
:102080000000000000000000000000004D4355204B
:10209000696E205374616E646279206D6F64652E81
:1020A0002057616B652075702062792070726573AE
:1020B00073696E6720535730000000000000000075
:1020C0000000000000000000000000000000000010
:1020D00000002D02657874656E6465642073746118
:1020E0006E646279000000004D435520696E204502
:1020F0007874656E646564205374616E64627920DF
:102100006D6F64652E2057616B6520757020627954
:10211000207072657373696E67205357300000003A
:102120000000000000000000000000000000380275
:10213000190000000001686C747A4C000000211541
:10214000110E0D0C0B0B0A0A0909090909080808E8
:10215000080808080707070707070707070707070B
:10216000073031323334353637383961626364656C
:10217000666768696A6B6C6D6E6F70717273747587
:06218000767778797A0001
:0400000300000000F9
:020000021000EC
:10F000000C9434FA2497289A0E9414FA189B0AC088
:10F0100007B700FDFDCFA5D10E94000024960895FA
:10F0200009E5F5D1A2D10136D9F3013459F49DD1C6
:10F03000B02F9BD12B2F220F220B0883B9832A8359
:10F040002B831EC00536F1F400E0088309830A8390
:10F050000B8307B700FDFDCF03E0E881F9813A811A
:10F060003BBF7CD1ECD00050F8D0088119812A81B7
:10F070000030104F2140304064F307B700FDFDCF52
:10F080000DE0CFCF023631F409E5C1D101E0BFD1A7
:10F0900000E0C7CF023419F4E6D0EED0C2CF073675
:10F0A00019F4E1D064D1BECF023579F407B700FD81
:10F0B000FDCF57D1C9D00F5F1F4F2F4FB1D1A7D16F
:10F0C000C3D0AED1A4D1C7D0ADCF033621F44DD13A
:10F0D000802F90E0D5CF033471F447D1902B07B740
:10F0E00000FDFDCF01E0488159816A819DD00C016E
:10F0F00035D1B1D0C5CF0D36A1F4A1D00030184F15
:10F1000040E0240730401CF00FE381D1B9CF07B7AE
:10F1100000FDFDCF05E048815981622F85D01ED1C9
:10F12000AFCF043459F407B700FDFDCF83D01DD114
:10F1300000BDFA9AF99AF999FECFDBCF043621F493
:10F1400079D0F89A00B5BECF0C3641F407B700FD70
:10F15000FDCF0BD1102F09E0012EE1CF023749F48A
:10F1600007B700FDFDCF09E0E1E0F0E007BF049143
:10F1700058CF063439F407B700FDFDCF09E0E0E0D1
:10F18000F0E0F4CF0E3431F407B700FDFDCF09E015
:10F19000E3E0EBCF013531F407B700FDFDCF09E027
:10F1A000E2E0E3CF003509F46BCF0C3409F468CF0B
:10F1B000053449F407B700FDFDCFD3D00DE027D1CA
:10F1C0000E9400002FCF003711F403E52ACF043747
:10F1D00011F400E05CCF083721F0093711F0043555
:10F1E00011F4C3D04DCF033561F401E410D106E52D
:10F1F0000ED102E50CD102E40AD108D107D104E511
:10F2000010CF063521F401E302D105E30ACF03371D
:10F2100031F405E0FCD007E9FAD00EE102CF0B3162
:10F2200009F400CF0FE3FDCE440F551F661FFA010E
:10F230006BBF0895088101BD098102BD0895088151
:10F2400019812A813B810895088119812A81000F43
:10F25000111F221F0895F3DF0F5FB9D008831983B0
:10F260002A833B83089581D0902F7FD0802F7DD03B
:10F27000AE01202F8C0108950E9442FADA954801D0
:10F280002A01253429F565D0AA2406C06ED0FE01D6
:10F29000E80FF91F008358D04CD0C4F307B700FD26
:10F2A000FDCF57D011C0F201008101BD018102BD27
:10F2B000FE01E80FF91F008100BDFA9AF99AF99949
:10F2C000FECFF2019BD040D034D06CF30DE02DC0C6
:10F2D000263451F5FA0133D08CD093D0C801A22F37
:10F2E00044D0602E42D011E0F201008011803281C2
:10F2F000F0013BBF062C102E17BFE8951FD00E5F04
:10F300007FD00EEF800E0FEF901E082D092941F7D8
:10F3100005E0FC01ABBF22D007B700FDFDCF21D037
:10F320000DD05ED06ED0D2CF0FE3D395EBE00C942E
:10F330004EFA88159905AA05BA050895F2010081CB
:10F3400011812281338108958F5F9F4FAF4FBF4F4F
:10F35000089580E090E0A0E0B0E0089507BFE89550
:10F36000089511E1002417BFFACF0C942AFA0E94E5
:10F3700049FAC801DA01253469F40D9101BD1D91E6
:10F38000129712BDFD013AD0F89A00B540D001970E
:10F39000A1F71AC02634C1F428D02BD01CD0139763
:10F3A0003BD0139736D013970F5F1F4F2F4F31D09D
:10F3B0003C910E5F0CD03C932E931E930E930297BC
:10F3C00079F713D00DD007D0E4E00C9455FA1F4F15
:10F3D0002F4F3F4F08950D931D932D933C93089508
:10F3E0003595279517950795089516D03C91139755
:10F3F0000895000F111F221F331F0895A0DF0F5F14
:10F40000E6DF008311832283338308950FE40C9495
:10F410001EFA06D00E941EFA0D911D912D9108959D
:10F42000F8012BBF069108950BE010E01093CD007A
:10F430000093CC0008E10093C90008950093CE002A
:10F440000091C80006FFFCCF0091C8000064009343
:10F45000C80008950091C80007FFFCCF0091CE00BE
:10F46000089500008895FECF0FE30DBF01E00EBFA9
:10F47000C0E4D3E00E945EFA0E9402F80E9431FAD2
:10F480000C9431FAAA929A928A927A926A925A9239
:10F490004A92BA93AA939A938A930895AA849984D4
:10F4A00088847F806E805D804C80BB81AA81998139
:10F4B0008881F0E0EC0FFD1FEF01089501E0089551
:040000031000F000F9
:00000001FF

